:0300000002248255
:0C248200787FE4F6D8FD75816E0224C955
:1032990012313D123541122AEA1234C11235511246
:1032A9002351122A1412353743BD10123508122A38
:0A32B90081122DC112355480EF225E
:0B352100EF1FAC0670011E4C70F6227C
:0832EB00900041EEF0A3EFF0AA
:1032F300E4FBFAD3900042E09B900041E09A400E39
:0E3303007F647E051235210BBB00010A80E5B8
:013311002299
:08331200900060EEF0A3EFF063
:10331A00E4FBFAD3900061E09B900060E09A400ED3
:0E332A007FEE7E021235210BBB00010A80E50A
:013338002272
:1031060090FF01E0540F44C0F090FF02E0540F44DA
:10311600C0F090FF0374CCF090FF1074C6F090FFDF
:10312600A47405F090FFA57421F090FFA67407F033
:0731360090FFA77420F022B6
:09354100123106D28575ACD422CA
:0F34B1008FABE5AD30E7FB85AB6A75AD80AF6AD9
:0134C00022E9
:1033A300C2AF75FDF075FC0F8EFA8FF975FDD275FE
:0B33B300FC2D75FDE175FC1ED2AF2261
:102FE90090005DEBF0A3EAF0A3E9F0900060E0FD4A
:102FF90014F0ED60250FEFAC0670010E14F5828C0C
:1030090083E493FD90005DE0FBA3E475F0011208F1
:0B3019001EA9F0FAED1207D480D122AE
:10305E00C2AF900060E0FD14F0ED602912075BF541
:10306E00FB75FDF075FC0F8EFA8FF975FDB475FCCE
:10307E004B75FDE175FC1E0FBF00010E740129F9A1
:08308E00E43AFA80CDD2AF2232
:082F2A00900041EEF0A3EFF06E
:102F3200E4A3F0900043E0FFC39406502C900041BC
:102F4200E475F00112081E85F082F583E493FEEF2A
:102F5200FDC374059DFDE494008D82F583EE120796
:092F6200E6900043E004F080CA8F
:012F6B002243
:0E31740090005BEBF0A3EAF0A3E9F0A3EDF00E
:10318200E4FFFE90005EE0FDEEC39D501890005BF0
:10319200E0FBA3E0FAA3E0F98E82758300120774C4
:0531A2006FFF0E80DE4E
:0131A7002205
:06352C00046B000000002A
:10313D00E490FEA0F0E58F30E5FB758E51E58E54E1
:10314D00C0FFBF40F890FE917401F090FE92741094
:10315D00F0E490FE80F0F589758CFA758ACB43A862
:07316D0002438810D2AF22DB
:0A35370075BD5790FEA074FFF0224E
:03000B000228B711
:1028B700C0E0C0F0C083C082C0D075D000C000C0E7
:1028C70001C002C003C004C005C006C007E4FAF98E
:1028D700F8E56E2401F56EEA356DF56DE9356CF5B1
:1028E7006CE8356BF56B90009A7401F0E47B32AFBE
:1028F7006EAE6DAD6CAC6B1208BFAC00AD01AE0235
:10290700AF03E4FBFAF9F8C312095170031234D18B
:10291700122064D007D006D005D004D003D002D04F
:0E29270001D000D0D0D082D083D0F0D0E032EA
:0E34D100900023E004F075F00384E5F0F02293
:0D34FB0075FDF075FC0F75FD8775FC7822DE
:0C35150000643264646400323232321907
:102E5700900084E0FEA3E0FF900095E0B50619A37B
:102E6700E0B50714900081E0FEA3E0FF900092E038
:102E77006E7003A3E06F6020900081E0FCA3E0FD8B
:102E8700EC5403F5E5EDF5E4900084E0FCA3E0FDE8
:092E9700EC5403F5E7EDF5E62229
:1016BF0090003EE0FF900086F090008D741FF0A325
:1016CF007440F0EF64A06009900086E0D394094065
:1016DF004C900089E0FBA3E0FAA3E0F9900002121E
:1016EF000774FF900094F09000031207749000802D
:1016FF00F090000174011207E6D3EF648094E44088
:10170F00069000947432F0900080E0D3648094E4EB
:10171F0040037432F0E4900086F00217B99000860F
:10172F00E004F0E0FF5403FE7011EF6408600C90CA
:10173F0000807464F0900094F0806FBE010DE4900F
:10174F000080F09000947464F0805FBE020E9000F1
:10175F00807432F09000947464F0804EBE030E904B
:10176F0000807432F09000947414F0803D900086E5
:10177F00E0B408369000807464F0900094F0123456
:10178F008D900092E0FFA3E0900081CFF0A3EFF0E7
:10179F00900095E0FFA3E0900084CFF0A3EFF0124C
:1017AF002E577F05123096123339900086E0900045
:1017BF003EF0122EE512348D900092E0FFA3E090E0
:1017CF000081CFF0A3EFF0900095E0FFA3E0900031
:1017DF0084CFF0A3EFF0122E57900089E0FBA3E027
:0D17EF00FAA3E0F990000174011207E62250
:1032C30090008FE06014900098E0701B04F075E1AB
:1032D3000F1216BFE4900090F022E4900098F09053
:0832E300009004F0E4F5E12283
:102C1B00900087E0FF30E05054FEF090008DE070A4
:102C2B0002A3E0604390008EE024FFF090008DE063
:102C3B0034FFF0E07002A3E0702E900094E0FF9060
:102C4B000089E0FBA3E0FAA3E0F9900002EF120782
:102C5B00E6900080E09000031207E690008674A0D7
:092C6B00F090003EF0122EE5226B
:103096009000B9EFF09000907401F09000B9E060F4
:1030A60021E4F5E143BD107FFAFE1232EB75E10F24
:1030B60043BD107FFA7E001232EB9000B9E014F0A7
:0830C60080D9E4900090F02293
:013554002254
:102EA000900089E0FBA3E0FAA3E0F990000112078B
:102EB00074B4010C900001E41207E675E108800B80
:102EC00090000174011207E675E10F900083E0D3D2
:102ED00094004010E014F07BFF7A2E79A07FF47EFE
:052EE0000112272C2265
:102A140090FF00E054F0F0E4900081F0A3F0900007
:102A240084F0A3F0900092F0A3F0900095F0A3F04E
:102A3400900098F012320E12354A900089EBF0A300
:102A4400EAF0A3E9F0E41207D47F05123479900088
:102A540089E0FBA3E0FAA3E0F990000174011207F6
:102A6400E6903517E493900080F0903518E4939045
:0D2A74000094F0123451E4900090F0FF2225
:0B125100900051EBF0A3EAF0A3E9F0DD
:10125C00E4A3F0A3F0900051E0FBA3E0FAA3E0F9C3
:10126C0090000A12077424C0B40A00400302147AD6
:10127C0090128A75F003A4C58325F0C583730212FE
:10128C00A80212DB02131E02136002138E021394C7
:10129C0002139A0213C80213CE0213D49000837463
:1012AC0005F0900089E0FBA3E0FAA3E0F9900001BF
:1012BC00120774700A900001041207E61234517B75
:1012CC00FF7A2E79A07F017E0012272C02147A90CF
:1012DC000089E0FBA3E0FAA3E0F99000017401128D
:1012EC0007E6900051E0FBA3E0FAA3E0F9900005BB
:1012FC00120774FF900089E0FBA3E0FAA3E0F990D9
:10130C000004EF1207E61234519000557401F002FC
:10131C00147A900089E0FBA3E0FAA3E0F9900001B5
:10132C00E41207E6900051E0FBA3E0FAA3E0F99089
:10133C000005120774FF900089E0FBA3E0FAA3E01C
:10134C00F9900004EF1207E6123465900055740111
:10135C00F002147A900051E0FBA3E0FAA3E0F990BC
:10136C00000C120774FF900094F0900089E0FBA32E
:10137C00E0FAA3E0F9900002EF1207E612348D02B6
:10138C00147A12262202147A1226A802147A9000D9
:10139C0051E0FBA3E0FAA3E0F990000B120774FFF5
:1013AC00900080F0900089E0FBA3E0FAA3E0F990B4
:1013BC000003EF1207E612348D02147A12250E0286
:1013CC00147A12283402147A900089E0FBA3E0FA14
:1013DC00A3E0F912075B54F01207D4900089E0FBEC
:1013EC00A3E0FAA3E0F9C003C002C00112075BFF3F
:1013FC00900051E0FBA3E0FAA3E0F990000B120778
:10140C00744FD001D002D0031207D4900051E0FBEE
:10141C00A3E0FAA3E0F990000B120774FF900054BC
:10142C00F0E4900088F0F0EFC3940650289000543C
:10143C00E0FF25E02415F582E43435F583E4939040
:10144C000080F0EF25E02416F582E43435F583E4D2
:10145C0093900094F012348D122E57900089E0FB7B
:10146C00A3E0FAA3E0F990000174011207E69000E2
:10147C0094E0FF900089E0FBA3E0FAA3E0F9900070
:10148C0002EF1207E6900080E09000031207E6904E
:0A149C0000997401F0900055E0FF84
:0114A6002223
:0E34DF009000B3EBF0A3EAF0A3E9F07F002227
:103451009000887401F0900094E0FF900080E0FDFE
:043461001222A7226A
:103465009000887401F0E4900092F0A3F09000952C
:04347500F0A3F022AE
:10262200900081E0FEA3E0FF900092E0FCA3E0FDB9
:10263200C39FEC9E5015900084E0FEA3E0FFC39080
:102642000096E09F900095E09E405A900081E0FE47
:10265200A3E0FFC3ED9FFFEC9EFEC3EF9432EE9426
:1026620000401D900084E0FEA3E0FF900096E09FF2
:10267200FF900095E09EFEC3EF9432EE9400502549
:10268200900094E02405F0E0D3648094E440037465
:1026920064F09000887402F0900094E0FF90008053
:0626A200E0FD1222A72258
:1026A800900081E0FEA3E0FF900092E0FCA3E0FD33
:1026B800D39FEC9E4015900084E0FEA3E0FFD390EA
:1026C8000096E09F900095E09E5058C3900082E0ED
:1026D8009DFF900081E09CFEC3EF9432EE94004091
:1026E8001D900095E0FEA3E0FF900085E09FFF901D
:1026F8000084E09EFEC3EF9432EE940050259000D3
:1027080094E024FBF0E0C36480948550037405F0E2
:102718009000887402F0900094E0FF900080E0FD43
:042728001222A722B0
:10250E00900081E0FEA3E0FF900092E0FCA3E0FDCE
:10251E00C39FEC9E5015900084E0FEA3E0FFC39095
:10252E000096E09F900095E09E4060900081E0FE56
:10253E00A3E0FFC3ED9FFFEC9EFEC3EF9432EE943B
:10254E0000401D900084E0FEA3E0FF900096E09F07
:10255E00FF900095E09EFEC3EF9432EE9400502B58
:10256E009000887402F0900080E02405F0E0D364BF
:10257E008094E440037464F09000887402F090003C
:0C258E0094E0FF900080E0FD1222A722E4
:10283400900081E0FEA3E0FF900092E0FCA3E0FDA5
:10284400D39FEC9E4015900084E0FEA3E0FFD3905C
:102854000096E09F900095E09E5057C3900082E060
:102864009DFF900081E09CFEC3EF9432EE94004003
:102874001D900095E0FEA3E0FF900085E09FFF908F
:102884000084E09EFEC3EF9432EE94005024900046
:1028940080E024FBF0E0C36480948A5002E4F0906A
:1028A40000887402F0900094E0FF900080E0FD1234
:0328B40022A72236
:10348D00E4900088F0900094E0FF900080E0FD1241
:03349D0022A72241
:1030CE0030801B900097E004F0E490008CF09000AC
:1030DE0097E0D39402402090008F7401F02290006C
:1030EE008CE004F0E4900097F090008CE0D3941EF6
:0830FE004005E490008FF02270
:1020640090008774FFF0900090E0600302213290AA
:102074000088E0FF900091E0C39F500302212CE40C
:10208400F0900081E0FEA3E0FF900092E0FCA3E06A
:10209400FDD39FEC9E4010900082E004F070069007
:1020A4000081E004F08015C3ED9FEC9E500E90007B
:1020B40082E024FFF0900081E034FFF0900084E09F
:1020C400FEA3E0FF900095E0FCA3E0FDD39FEC9E0F
:1020D4004010900085E004F07006900084E004F065
:1020E4008015C3ED9FEC9E500E900085E024FFF018
:1020F400900084E034FFF0122E57900081E0FEA39C
:10210400E0FF900092E0B50625A3E0B5072090001B
:1021140084E0FEA3E0FF900095E0B50611A3E0B5CE
:0F212400070CE4900099F022900091E004F02263
:0522A700900056EFF06D
:1022AC00C394654003022350EDC39465400302239D
:1022BC0050ED75F00AA4FFAEF0E4FCFDA3120998F2
:1022CC00900057E0F8A3E0F9A3E0FAA3E0FBC37495
:1022DC00E89BFF74039AFEE499FDE498FCA31209B1
:1022EC0098900056E0FFE4FCFDFEA3E0F8A3E0F9B3
:1022FC00A3E0FAA3E0FB120834E47B64FAF9F812C9
:10230C0008BF90005FEEF0A3EFF0900056E0FFE402
:10231C00FCFDFE90005BE0F8A3E0F9A3E0FAA3E07B
:10232C00FB120834E47B64FAF9F81208BF900092AF
:10233C00EEF0A3EFF090005FE0FFA3E0900095CFEC
:04234C00F0A3EFF01B
:01235000226A
:10320E0090FF11E0540F44C0F090FF0074CCF0908A
:10321E00FF917423F090FF907401F0E4F5DA75E1FC
:10322E000F75E30375E2E8F5E5F5E4F5E7F5E6225B
:1034C1007E007F187D007B017A00799B120BAB2275
:10272C00900056EEF0A3EFF0A3EBF0A3EAF0A3E9D0
:01273C00F0AC
:10273D00E4F566E56675F006A4249BF582E43400A5
:10274D00F583E020E753E56675F006A4249BF5823A
:10275D00E43400F5837480F0900056E0FEA3E0FFB2
:10276D00E56675F006A4249CF582E43400F583EE4D
:10277D00F0A3EFF0900058E0FBA3E0FAA3E0F9E539
:10278D006675F006A4249EF582E43400F583EBF023
:10279D00A3EAF0A3E9F07F00220566E566B4049391
:0227AD007F01AA
:0127AF002207
:102A810090009AE06060E4F0F566E56675F006A4F2
:102A9100249CF582E43400F583E0FEA3E04E603F20
:102AA100E56675F006A4249CF582E43400F5837490
:102AB100FFF5F0120808E56675F006A4249CF5827E
:102AC100E43400F583E0FEA3E04E7013E56675F093
:102AD10006A4249BF582E43400F583E04401F0056B
:082AE10066E566B404A47F0061
:012AE90022CA
:102DC100E4F566E56675F006A4249BF582E434001B
:102DD100F583E030E02AE56675F006A4249BF582D0
:102DE100E43400F583E4F0E56675F006A4249EF56D
:102DF10082E43400F583E0A3E0FAA3E0F91209FBD1
:0B2E01000566E566C3940440BA7F003C
:012E0C0022A3
:102F6C00006F01E80252030D04C4082509410A57F9
:102F7C000B3B10861168120C1600540522482910C0
:102F8C002D002E0934193540400A48BE49D64E8EC4
:102F9C004F8950F851425270420843004420FFFFC1
:1033D900C285EF4480FF1234B17F027E001235218D
:0933E9007FFF1234B18F69D28517
:0133F20022B8
:10342700900064EDF0C2851234B1900064E0FF12A1
:0534370034B1D2852232
:0A302400900063EBF0900062EFF003
:10302E00AE057401A806088002C333D8FCF56712FA
:10303E0033D98F66900063E06006E56742668005CF
:0F304E00E567F45266900062E0FFAD661234272A
:01305D002250
:0E2C740090004FEFF0A3EBF0A3EAF0A3E9F01D
:102C8200C2857F057E0012352190004FE04480FF0F
:102C92001234B1E4F566900053E0FFE566C39F503D
:102CA2001E7FFF1234B1900050E0FBA3E0FAA3E0D4
:102CB200F9856682758300EF1207E6056680D77F85
:082CC200057E00123521D285C8
:012CCA0022E7
:0E2D1F00900062EFF0A3EBF0A3EAF0A3E9F05E
:102D2D00C2857F057E00123521900062E0FF1234CE
:102D3D00B1E4F566900066E0FFE566C39F501C9018
:102D4D000063E0FBA3E0FAA3E0F9856682758300DA
:102D5D00120774FF1234B1056680D97F057E00120B
:042D6D003521D285B5
:012D7100223F
:102CCB00E4F567E56725E0246CF582E4342FF583A2
:102CDB00E493FFF4603BEF642E60327F0A7E0012B8
:102CEB0032EBE56725E0246CF582E4342FF583E4C1
:102CFB0093FF1233D98F68E56725E0246DF582E4E5
:102D0B00342FF583E49365686003AF672205678012
:032D1B00B27FFF85
:012D1E002292
:102AEA00C286D285C2867F327E00123521D286B254
:102AFA00807F057E001232EB902F6CE493FFA3E4F3
:102B0A0093FD123427902F6CE493FF1233D98F660A
:102B1A00E4F566E56625E0246CF582E4342FF58356
:102B2A00E493FFF46017E56625E0246DF582E4344A
:102B3A002FF583E493FD123427056680D6122CCB39
:052B4A00BFFFB57F0094
:012B4F002263
:100BD70000184ED3B3F3000000000000065B0000CE
:100BE7000CB600000AED0000196C00001F3700006A
:100BF70015DA00001381000032D8000034830000AA
:100C07003E6E0000383500002BB400002DEF0000C9
:100C1700270200002159000065B0000063EB0000C7
:100C2700690600006F5D00007CDC00007A87000029
:100C3700706A0000763100005768000051330000E9
:100C47005BDE00005D8500004E040000485F000089
:100C570042B2000044E90000CB600000CD3B000039
:100C6700C7D60000C18D0000D20C0000D457000089
:100C7700DEBA0000D8E10000F9B80000FFE3000089
:100C8700F50E0000F3550000E0D40000E68F0000E9
:100C9700EC620000EA390000AED00000A88B00002B
:100CA700A2660000A43D0000B7BC0000B1E7000049
:100CB700BB0A0000BD5100009C0800009A530000C9
:100CC70090BE000096E5000085640000833F0000A9
:100CD70089D200008F89000196C00001909B000116
:100CE7009A7600019C2D00018FAC000189F7000165
:100CF700831A000185410001A4180001A2430001E5
:100D0700A8AE0001AEF50001BD740001BB2F0001C4
:100D1700B1C20001B7990001F3700001F52B000182
:100D2700FFC60001F99D0001EA1C0001EC47000124
:100D3700E6AA0001E0F10001C1A80001C7F3000124
:100D4700CD1E0001CB450001D8C40001DE9F000184
:100D5700D4720001D22900015DA000015BFB0001F4
:100D670051160001574D000144CC00014297000184
:100D7700487A00014E2100016F78000169230001C4
:100D870063CE00016595000176140001704F0001E4
:100D97007AA200017CF90001381000013E4B0001E6
:100DA70034A6000132FD0001217C00012727000144
:100DB7002DCA00012B9100010AC800010C93000104
:100DC700067E00010025000113A4000115FF0001A4
:100DD7001F120001194900032D8000032BDB0003BC
:100DE70021360003276D000334EC000332B70003FC
:100DF700385A00033E0100031F580003190300037C
:100E070013EE000315B5000306340003006F00035B
:100E17000A8200030CD90003483000034E6B00031D
:100E27004486000342DD0003515C000357070003BB
:100E37005DEA00035BB100037AE800037CB30003BB
:100E4700765E0003700500036384000365DF00031B
:100E57006F32000369690003E6E00003E0BB0003AB
:100E6700EA560003EC0D0003FF8C0003F9D70003DB
:100E7700F33A0003F5610003D4380003D26300039B
:100E8700D88E0003DED50003CD540003CB0F00033B
:100E9700C1E20003C7B9000383500003850B0003B9
:100EA7008FE6000389BD00039A3C00039C6700039B
:100EB700968A000390D10003B1880003B7D30003DB
:100EC700BD3E0003BB650003A8E40003AEBF0003FB
:100ED700A4520003A2090002BB400002BD1B00028E
:100EE700B7F60002B1AD0002A22C0002A4770002FF
:100EF700AE9A0002A8C10002899800028FC30002BF
:100F0700852E00028375000290F4000296AF00025E
:100F17009C4200029A190002DEF00002D8AB0002E0
:100F2700D2460002D41D0002C79C0002C1C70002BE
:100F3700CB2A0002CD710002EC280002EA730002FE
:100F4700E09E0002E6C50002F5440002F31F00021E
:100F5700F9F20002FFA9000270200002767B00026E
:100F67007C9600027ACD0002694C00026F170002DE
:100F770065FA000263A1000242F8000244A30002DE
:100F87004E4E0002481500025B9400025DCF00023E
:100F970057220002517900021590000213CB00027C
:100FA700192600021F7D00020CFC00020AA700029E
:100FB700004A00020611000227480002211300021E
:100FC7002BFE00022DA500023E240002387F0002FE
:060FD7003292000234C951
:033551007F0022D6
:08000300AD077F121234272221
:10336000EFC454F0FEEFC4540F4EFF13135433FE5A
:10337000EF25E025E054CC4EFFC3135455FEEF2556
:06338000E054AA4EFF22FA
:1033F300E4FD12075BFF123360EF1207D474012957
:09340300F9E43AFA0DEDB403E915
:01340C00229D
:1033BE00E4FEFDEE25E0FEEF30E004EE4401FEEF0C
:0A33CE00C313FF0DEDB408EBAF06CA
:0133D80022D2
:101F7C00900074EBF0A3EAF0A3E9F0A3ECF0A3ED6E
:011F8C00F064
:101F8D0090007C1209A400555555E4900079F0A3FA
:101F9D00F0900077E0FEA3E0FFC390007AE09FEEA3
:101FAD006480F8900079E0648098400302203D90B1
:101FBD000074E0FBA3E0FAA3E0F9900079E0FEA342
:101FCD00E0F5828E83120774FF1233BE90007BEF13
:101FDD00F0FBA3E0FCA3E0FDA3E0FEA3E0FF78107F
:101FED00120962EF6B75F004A424DDF582E5F0347F
:101FFD000BF583120988C00090007CE0FCA3E0FD86
:10200D00A3E0FEA3E0FF7808120975D000EB6FFF87
:10201D00EA6EFEE96DFDE86CFC90007C120998906B
:10202D00007AE004F07006900079E004F0021F9E43
:10203D0090007CE0FCA3E0FDA3E0FEA3E0FFEEED4D
:10204D00E4FC90007C12099890007CE0FCA3E0FD7C
:06205D00A3E0FEA3E0FF7A
:01206300225A
:0527B00090006CEDF04B
:1027B5009000701209A40000000090006CE0FD7C00
:1027C50000121F7C900070120998900070E0FCA325
:1027D500E0FDA3E0FEA3E0FF7810120962EFE490AC
:1027E500006DE0FBA3E0FAA3E0F9EF1207D4900037
:1027F50070E0FCA3E0FDA3E0FEA3E0FF780812096A
:1028050062EFE490006DE0FBA3E0FAA3E0F990002D
:1028150001EF1207E6900070E0FCA3E0FDA3E0FEE7
:0E282500A3E0FFE4900002EF1207E61233F387
:012833002282
:0E1B610090005FEBF0A3EAF0A3E9F0A3EDF033
:101B6F00900066E4F0A37400F0A37437F090006661
:101B7F00E0FBA3E0FAA3E02402F9E43AA801FCADEC
:101B8F000390005FE0FBA3E0FAA3E0F97E007F067D
:101B9F00120735900066E0FBA3E0FAA3E0F990008E
:101BAF000874021207E690000974011207E690000C
:101BBF000A74061207E690000C74FF1207E69000F5
:101BCF0021E090000D1207E6900022E090000E1227
:101BDF0007E674421207D4900062E0240AFF9000D7
:101BEF0066E0FBA3E0FAA3E0F9900001EF1207E62D
:101BFF00900001120774FFFD7C00E92402F9E43A1A
:101C0F00FAE92DF9EC3AFA900063EBF0A3EAF0A3AE
:101C1F00E9F0EF2405FFA3E0FBA3E0FAA3E0F990BE
:101C2F00002DEF1207E6C003C002C001900066E06E
:101C3F00FBA3E0FAA3E0F99000011207742402FD60
:101C4F00900063E0F9A3E0FAA3E090006DC9F0A360
:0E1C5F00EAF0A3E9F0D001D002D0031227B0C2
:011C6D002254
:10340D00900060EFF0E4FBFD7F0E12302490006021
:0A341D00E04480FD7F0F12342722E7
:1034A000AD077F0F1234277B01E4FD7F0E1230241D
:0134B00022F9
:052E0D009000BAEFF097
:102E1200E4FB7D077F0F123024E4FBFD7F0E1230AE
:102E2200247D807F681234277D807F691234279049
:102E320000BAE0900BD7934480FD7F561234277F6F
:102E4200647E001235217F611233D9EF30E6F77FBD
:042E5200641233D9FA
:012E56002259
:102B500090005FE4F0A37400F0A37437F0E4FB7D11
:102B6000077F0F123024E4FBFD7F0E1230247D809E
:102B70007F681234277D807F6912342790005FE0E0
:102B8000FBA3E0FAA3E0F990002D1207744480FD46
:102B90007F5F12342790005FE0FBA3E0FAA3E0F927
:102BA00090002D120774900066F07B007A00793750
:052BB0007F64122D1FDF
:012BB50022FD
:1031DC0090005FEFF0E0900BDA93FD7F47123427FD
:1031EC007D807F691234277D807F681234279000A0
:1031FC005FE0900BD793FF1234A07F017E00123357
:02320C0012228C
:102D720090005FEFF0E4FB7D077F0F123024E4FB4D
:102D8200FD7F0E12302490005FE0900BDA93FD7FFE
:102D9200471234277DA97F5F1234277D807F681216
:102DA20034277D807F691234277B017D017F2512C4
:0F2DB200302490005FE0900BD793FF12340D2276
:0E31A80090004FEBF0A3EAF0A3E9F0A3EDF0E6
:1031B600E4FFFE900052E0FDEEC39D501890004FD4
:1031C600E0FBA3E0FAA3E0F98E8275830012077490
:0531D6006FFF0E80DE1A
:0131DB0022D1
:100FDD00E490004BF0A3F0A37400F0A37408F07F2D
:100FED00681233D9900044EFF0D3942E40030212CF
:100FFD004E7B007A0079089000537404F07F6412E0
:10100D002C74E509F46003021161E50A644E600376
:10101D00021161E50B600302116190004CE0FBA32E
:10102D00E0FAA3E0240BF9E43AA801FCAD037B0040
:10103D007A0079087E007F0412073590004CE0FBA2
:10104D00A3E0FAA3E0240FF9E43AFAC002C001903C
:10105D00004CE0A3E0FAA3E0F990000B12077490A6
:10106D000053F0D001D0027F64122C7490004CE03C
:10107D00FBA3E0FAA3E0F990000B120774FF7E00CA
:10108D00E9240BF9E43AFAE92FF9EE3AFAE92401E9
:10109D00F9E43AFA900048EBF0A3EAF0A3E9F07F07
:1010AD00067D0090004CE0A3E0FAA3E02402F9E4F1
:1010BD003AFA120BAB90004CE0FBA3E0FAA3E0F977
:1010CD0074421207D490004CE0FBA3E0FAA3E0F9C0
:1010DD0090000B120774240A9000011207E690008D
:1010ED000874021207E690000974011207E69000D9
:1010FD000A74061207E6E9240BF9E43AFAC003C0B4
:10110D0002C00190004CE0FBA3E0FAA3E0F99000CF
:10111D000B12077404FDD001D002D0031231A89038
:10112D000045EFF090004CE0FBA3E0FAA3E0F9904E
:10113D00000112077424F390002D1207E690004869
:10114D00E0FBA3E0FAA3E0F912075BB507037F010B
:10115D00227F002290004CE0FBA3E0FAA3E02404E0
:10116D00F9E43AFA900053740BF07F64122C7490EA
:10117D00004CE0FBA3E0FAA3E0F990000D12077418
:10118D00FF900021E06F600302122D90000E1207F8
:10119D0074FF900022E06F600302122D90004CE06E
:1011AD00A3E0A3E0240FF9E43AFA900044E024F11F
:1011BD00900053F07F64122C7490004CE0FBA3E080
:1011CD00FAA3E0F9900001120774FFFD7C00E924F9
:1011DD0002F9E43AFAE92DF9EC3AFA900048EBF00D
:1011ED00A3EAF0A3E9F0EF2402FD90006D7401F085
:1011FD00A37400F0A37445F090004CE0A3E0FAA3B3
:10120D00E0F91227B090004CE0FBA3E0FAA3E0F95F
:10121D0090000112077424F390002D1207E680034D
:10122D007F002278457C007D01900048E0FBA3E023
:10123D00FAA3E0F97E007F03120B87EF70037F01A5
:03124D00227F00FD
:01125000227B
:1029A5007B017D017F25123024120FDDEF60557B01
:1029B500007A007908900041EBF0A3EAF0A3E9F072
:1029C5002402F9E43AFAC003C002C001900041E0D4
:1029D500FBA3E0FAA3E0240FF9E43AFA900047EBF1
:1029E500F0A3EAF0A3E9F0900041E0A3E0FAA3E048
:1029F500F990002D12077490004AF0D001D002D052
:0E2A0500031214A7900023E0FF122D727F0031
:012A130022A0
:0D3508007F611233D9EF30E6031229A522AE
:10326E007DF97F011234277D017F411234277DB015
:10327E007F441234277D837F161234277D047F0E00
:0B328E001234277D4B7F0F12342722E3
:103386007DE97F01123427E4FD7F411234277D3029
:0D3396007F441234277D037F161234272256
:0E34ED004C454400000000000000FFFFFFFE01
:043532004100400014
:102FAC007B007A0079469000B6EBF0A3EAF0A3E937
:102FBC00F07D101221339000B6E0F9A3E0FAA3E003
:102FCC00900054C9F0A3EAF0A3E9F0A37401F0A3B4
:0C2FDC00740AF07B017A00791512193498
:012FE80022C6
:10343C007E007F147D007B017A007900120BABE4D7
:05344C00900040F02299
:0E1D780090004BEBF0A3EAF0A3E9F0A3EDF02E
:101D8600E4A3F0900040E0FF90004FE0FEC39F50B8
:101D960057EE75F004A42400F9740035F0FA7B01BF
:101DA600C003C00290004BE0FBA3E0FAA3E0F8AC4E
:101DB60002AD03D002D0037E007F03120B87EF70C3
:101DC6001F90004FE025E025E02403F582E434006F
:101DD600F583E0FF90004EE0FEEFB506037F01229B
:101DE60090004FE004F0809B900040E0FFC3940514
:101DF6004044EF24FFFFE434FFFEEF7802C333CE06
:101E060033CED8F9FF78007C007D017B017A00791A
:101E16000412073578107C007D0190004BE0FBA38F
:101E2600E0FAA3E0F97E007F0312073590004EE04A
:101E3600900013F0804290004FE075F004A4240057
:101E4600F9740035F0A801FC7D0190004BE0FBA37E
:101E5600E0FAA3E0F97E007F0312073590004EE01A
:101E6600FFA3E025E025E02403F582E43400F583B2
:0A1E7600EFF0900040E004F07F0060
:011E8000223F
:0B23F30090005FEBF0A3EAF0A3E9F01C
:1023FE0012075BFFC4131313540130E07690005F95
:10240E00E0FBA3E0FAA3E02401F9E43AFAA3EBF02F
:10241E00A3EAF0A3E9F07F1990005FE0A3E0FAA32E
:10242E00E0F912075BFE90001BE0FDEE541FFCEE80
:10243E0054E0FEED6C541F4E1207D4E4FEEEC39F23
:10244E005031900062E0FBA3E0FAA3E0F912075BC3
:10245E00FDEE75F00684741B25F0F582E43400F56C
:10246E0083E06D1207D4900063E475F00112080842
:03247E000E80CA03
:012481002238
:102EE5007B017A0079157D2A12317490003FEFF04D
:102EF5007F007E3C1233A37F807E3C1233A37B018F
:102F05007A007915900060742BF07F007E3C1230BA
:102F15005E7B017A007915900060742BF07F807ECE
:052F25003C12305E22A9
:10293500E4900041F07B017A007915900060742BDA
:10294500F07F007E3C122FE97B017A0079157D2A04
:10295500123174900041EFF090003FE0B507037F1E
:1029650000227B017A007915900060742BF07F803E
:102975007E3C122FE97B017A0079157D2A1231748C
:10298500900041EFF090003FE0B507037F00227F04
:0F299500007E3C1233A37F807E3C1233A37F0170
:0129A4002210
:10235100122935BF01031234FB78F17C347DFF7BF8
:10236100017A0079157E007F06120B87EF701375D5
:10237100A2107B017A0079157F027E01122F2AE4D7
:10238100F5A2122EE5900021744EF0E4A3F0900026
:102391002CF0A304F0E4900023F090002B7405F0DE
:1023A100E4900039F0900014F012343C900027E0E2
:1023B10020E00B900026741EF0A3E04402F0900090
:1023C10027E054FBF054DFF04410F0900024E0705B
:1023D100097BFF7A3479F712323E900023E0FF1235
:1023E1002D727BFF7A2179FA7F647E0012272C7F80
:0223F1000022C8
:10259A00900054EBF0A3EAF0A3E9F0900054E0FBBA
:1025AA00A3E0FAA3E0F990000AED1207E6900058BA
:1025BA00E05401FFC4333354C0FF12075B54BF4FCA
:1025CA001207D4900054E0FBA3E0FAA3E02401F937
:1025DA00E43AA801FCAD037B017A0079157E007FFD
:1025EA0003120735900054E0FBA3E0FAA3E0F99048
:1025FA00000674FF1207E690000774FF1207E690C0
:10260A00000874FF1207E6900025E0900004120704
:08261A00E6900025E004F02227
:0B14A700900044EBF0A3EAF0A3E9F092
:1014B200A3E0FBA3E0FAA3E0F91223F3900047E0D4
:1014C200FBA3E0FAA3E0F912075B541FFF9000268A
:1014D200E06F6008EF641F60037F0122900047E025
:1014E200FBA3E0FAA3E02401F9E43AA801FCAD036E
:1014F2007B017A0079157E007F03120B87EF700360
:101502007F012290004AE0FF900047E0FBA3E0FA4F
:10151200A3E0F990001AEF1207E6E92401F9E43A90
:10152200FAC003C002C001900047E0FBA3E0FAA3A7
:10153200E0F9900004120774FDD001D002D003122A
:101542001D78BF01037F0122900047E0FBA3E0FA70
:10155200A3E0F912075BFFC41313540330E0759044
:101562000005120774D39400404590000574FF12E1
:1015720007A1900047E0F9A3E0FAA3E0900054C964
:10158200F0A3EAF0A3E9F0A37401F090002BE0903D
:101592000058F0900044E0FBA3E0FAA3E0F912192E
:1015A20034900047E0FBA3E0FAA3E0F91223F390A2
:1015B2000047E0FBA3E0FAA3E0F9900009120774E8
:1015C20064FE6034E92406F9E43AFA122BB6EF70AD
:1015D200277F0122900047E0FBA3E0FAA3E0240664
:1015E200F9E43AA801FCAD037B017A0079157E008B
:1015F2007F03120B87EF703A900047E0FBA3E0FAFB
:10160200A3E0F912075BFFC413540730E0219000F6
:1016120047E0A3E0A3E090004EEBF0A3EAF0A3E9D9
:10162200F0900044E0FBA3E0FAA3E0F912000E7F81
:101632000022900047E0FBA3E0FAA3E0F990000546
:10164200120774D39400407290000574FF1207A130
:1016520090000A120774C39440502D900047E0F99D
:10166200A3E0FAA3E0900054C9F0A3EAF0A3E9F0E2
:10167200A37401F0A37403F0900044E0FBA3E0FA2A
:10168200A3E0F9121934802F900047E0F9A3E0FAA1
:10169200A3E0900054C9F0A3EAF0A3E9F0A3740117
:1016A200F090002BE0900058F0900044E0FBA3E0A3
:0C16B200FAA3E0F91219347F00227F0037
:0116BE002209
:10000E0090004EE0FBA3E0FAA3E0240AF9E43AFAEA
:10001E0012075B547F1207D490004EE0FBA3E0FA68
:10002E00A3E0F990000A120774FFC3944040030244
:10003E00060FEF1209D5006C0601BD0801D30901A8
:10004E00A40A01DA0C04C2100520110211120316C3
:10005E001403CD16045918057E1A0000066490008C
:10006E0039E0C394FA4007900027E054FDF0900069
:10007E0027E0FFC31320E00302014DEF54FDF044CF
:10008E0001F090004EE0FBA3E0FAA3E0F990000B24
:10009E00120774900026F0E9240CF9E43AFA783B42
:1000AE007C007D017E007F0312073590004EE0FB41
:1000BE00A3E0FAA3E0240FF9E43AFA781B7C007D62
:1000CE00017E007F06120735122EE590004EE0FBF2
:1000DE00A3E0FAA3E0F9E4900058F07D0712259A08
:1000EE0090004EE0FBA3E0FAA3E0F990000BE412BF
:1000FE0007E690001A740C1207E690004EE0F9A382
:10010E00E0FAA3E0900054C9F0A3EAF0A3E9F0A34B
:10011E007401F0A3741EF07B017A00791512193464
:10012E0090004EE0FBA3E0FAA3E0F990000A7440C1
:10013E001207E690000B74011207E612125122907C
:10014E00004EE0FBA3E0FAA3E0F9E4900058F07D46
:10015E000712259A90004EE0FBA3E0FAA3E0F99077
:10016E00000B74021207E690001A740C1207E69048
:10017E00004EE0F9A3E0FAA3E0900054C9F0A3EA20
:10018E00F0A3E9F0A37401F0A3741EF07B017A00D2
:10019E0079151219342290004EE0FBA3E0FAA3E089
:1001AE00F990000B12077490002BF0122EE522909E
:1001BE00004EE0FBA3E0FAA3E0F990000B120774E7
:1001CE00FF12000322900014740AF02290004EE0F9
:1001DE00FBA3E0FAA3E0F97D0512213390004EE077
:1001EE00F9A3E0FAA3E0900054C9F0A3EAF0A3E962
:1001FE00F0A37401F0A3741EF07B017A007915123E
:10020E0019342290004EE0FBA3E0FAA3E0240BF990
:10021E00E43AFA783B7C007D017E007F03120B8767
:10022E00EF60030202BF90004EE0FBA3E0FAA3E0F2
:10023E00F990000BE41207E6E4900058F07D1312DB
:10024E00259A90004EE0FBA3E0FAA3E0F990001A85
:10025E00740C1207E690004EE0F9A3E0FAA3E090CA
:10026E000054C9F0A3EAF0A3E9F0A37401F0A3745B
:10027E001EF07B017A007915121934900027E044A4
:10028E0002F054FEF090004EE0FBA3E0FAA3E0F97A
:10029E0090000A74401207E690000B74021207E6F3
:1002AE001212517BFF7A3379397FB87E0B12272CCD
:1002BE002290004EE0FBA3E0FAA3E0F9E490005890
:1002CE00F07D1312259A90004EE0FBA3E0FAA3E016
:1002DE00F990000B74021207E690001A740C1207C4
:1002EE00E690004EE0F9A3E0FAA3E0900054C9F0C6
:1002FE00A3EAF0A3E9F0A37401F0A37405F07B0167
:10030E007A0079151219342290004EE0FBA3E0FA20
:10031E00A3E0240BF9E43AFA122BB6EF703F9000EB
:10032E004EE0FBA3E0FAA3E0240BF9E43AFA123212
:10033E003EBF011590004EE0FBA3E0FAA3E0F9905A
:10034E00000B74021207E6802790004EE0FBA3E03C
:10035E00FAA3E0F990000BE41207E6801390004E2A
:10036E00E0FBA3E0FAA3E0F990000B74011207E69C
:10037E0090004EE0FBA3E0FAA3E0F9E4900058F001
:10038E007D1512259A90004EE0FBA3E0FAA3E0F94A
:10039E0090001A740C1207E690004EE0F9A3E0FAF2
:1003AE00A3E0900054C9F0A3EAF0A3E9F0A374010E
:1003BE00F0A37414F07B017A00791512193422908F
:1003CE00004EE0FBA3E0FAA3E0240BF9E43AFA12A4
:1003DE001C6EEF701490004EE0FBA3E0FAA3E0F960
:1003EE0090000BE41207E6801390004EE0FBA3E0B2
:1003FE00FAA3E0F990000B74011207E690004EE0AC
:10040E00FBA3E0FAA3E0F9E4900058F07D17122563
:10041E009A90004EE0FBA3E0FAA3E0F990001A7464
:10042E000C1207E690004EE0F9A3E0FAA3E090006C
:10043E0054C9F0A3EAF0A3E9F0A37401F0A3741475
:10044E00F07B017A0079151219342290004EE0FBF0
:10045E00A3E0FAA3E0240BF9E43AFA121A4E900044
:10046E004EE0FBA3E0FAA3E0F9E4900058F07D190A
:10047E0012259A90004EE0FBA3E0FAA3E0F990005B
:10048E000BE41207E690001A740C1207E690004E69
:10049E00E0F9A3E0FAA3E0900054C9F0A3EAF0A3B8
:1004AE00E9F0A37401F0A37414F07B017A007915BE
:1004BE0012193422900039E0C3943C4003020664C2
:1004CE00743CF090004EE0FBA3E0FAA3E0240BF99D
:1004DE00E43AFA121E8190004EE0FBA3E0FAA3E08C
:1004EE00F990000E74011207E6E9240BF9E43AFACA
:1004FE00121E8190004EE0FBA3E0FAA3E0F99000FB
:10050E000A74401207E690000B74031207E61212EB
:10051E005122900039E0C3943C4003020664743CBF
:10052E00F090004EE0FBA3E0FAA3E0240BF9E43ACE
:10053E00FA121C6E90004EE0FBA3E0FAA3E0F990D5
:10054E00000E74011207E6E9240BF9E43AFA121CC4
:10055E006E90004EE0FBA3E0FAA3E0F990000A745F
:10056E00401207E690000B74041207E61212512295
:10057E007F807E3D1233A390004EE0FBA3E0FAA3F2
:10058E00E0240BF9E43AFAC002C00190004EE0A359
:10059E00E0FAA3E0F990000B12077404900060F0EB
:1005AE00D001D0027F807E3D12305E90004EE0FB87
:1005BE00A3E0FAA3E0F9E4900058F07D1B12259A0F
:1005CE0090004EE0FBA3E0FAA3E0F990000B1207B7
:1005DE0074240C90001A1207E690004EE0F9A3E086
:1005EE00FAA3E0900054C9F0A3EAF0A3E9F0A374D3
:1005FE0001F0A37414F07B017A00791512193422DC
:10060E002290004EE0FBA3E0FAA3E0F9121251EFA4
:10061E006401704290004EE0FBA3E0FAA3E0F912F1
:10062E00075BFFC41313540320E02B7D10122133FC
:10063E0090004EE0F9A3E0FAA3E0900054C9F0A3B5
:10064E00EAF0A3E9F0A37401F0A3741EF07B017A23
:07065E000079151219342286
:0B193400900051EBF0A3EAF0A3E9F0F3
:10193F00E490005CF0A3F0900027E05401FFC43363
:10194F0033335480FF900054E0FBA3E0FAA3E0F997
:10195F0012075B547F4F1207D4900054E0FBA3E0B3
:10196F00FAA3E0F91223F3900057E0640160030239
:10197F001A4B900059F0A37400F0A37437F0900045
:10198F0054E0FBA3E0FAA3E0F990001A120774FFEA
:10199F007E00900059E0FBA3E0FAA3E0240FF9E4E6
:1019AF003AA801FCAD03900054E0FBA3E0FAA3E0DA
:1019BF00F9120735900054E0FBA3E0FAA3E0F99089
:1019CF00001A1207742403FF900059E0FBA3E0FAFA
:1019DF00A3E0F990000BEF1207E6900059E0FBA38C
:1019EF00E0FAA3E0F990000B120774FD900051E0AC
:1019FF00FBA3E0FAA3E0F9121B61E490005DF09005
:101A0F000058E0FF90005DE0C39F5025122B50E47B
:101A1F0090005CF090005CE0FFC39403500B123118
:101A2F00DC90005CE004F080EB90005DE004F0805F
:0E1A3F00CE900023E0FF122D727F00227F0167
:011A4D002276
:1017FC00900044EBF0A3EAF0A3E9F0900026E0544B
:10180C001FFF900044E0FBA3E0FAA3E0F912075B92
:10181C0054E04F1207D4900044E0FBA3E0FAA3E09D
:10182C00F912075B44201207D4900044E0FBA3E0BC
:10183C00FAA3E0F912075B547F1207D4900044E03E
:10184C00FBA3E0FAA3E0F990000574101207E6E49C
:10185C00900058F0FD12259A900027E0FF9000446C
:10186C00E0FBA3E0FAA3E0F990000BEF1207E6E926
:10187C00240CF9E43AFA9000607401F07F807E3D0C
:10188C00122FE9900044E0FBA3E0FAA3E0F99000EA
:10189C000C120774702B90000C74031207E6900066
:1018AC0044E0FBA3E0FAA3E0240DF9E43AA801FC20
:1018BC00AD037BFF7A3479ED7E007F031207358010
:1018CC004D900044E0FBA3E0FAA3E0F990000C1269
:1018DC000774D3940D400890000C740D1207E6E9C0
:1018EC00240DF9E43AFAC003C002C001900044E0B0
:1018FC00FBA3E0FAA3E0F990000C120774900060CF
:10190C00F0D001D002D0037F817E3D122FE99000F0
:10191C0044E0FBA3E0FAA3E0F990000C1207742456
:08192C000D90001A1207E622DB
:10213300900051EBF0A3EAF0A3E9F0900026E054FD
:102143001FFF900051E0FBA3E0FAA3E0F912075B45
:1021530054E04F1207D4900051E0FBA3E0FAA3E050
:10216300F912075B44201207D4900051E0FBA3E06F
:10217300FAA3E0F912075B547F1207D4900051E0F1
:10218300FBA3E0FAA3E0F9900005ED1207E6E49063
:102193000058F07D0112259A90002CE0FF90005129
:1021A300E0FBA3E0FAA3E0F990000BEF1207E6903F
:1021B300002DE090000C1207E6900038E0FF7E004F
:1021C300900051E0FBA3E0FAA3E0240DF9E43AA860
:1021D30001FCAD037B017A00792E1207359000389C
:1021E300E0240DFF900051E0FBA3E0FAA3E0F99097
:0721F300001AEF1207E622BB
:10347900EFC3940A5006900038EFF022E490003828
:04348900F07F0022AE
:07354A007B017A00792E22BB
:1021FA00900041E4F0A37400F0A37446F090001438
:10220A00E0D394004010900041E0FBA3E0FAA3E081
:10221A00F91217FC8027900025E020E01090004179
:10222A00E0FBA3E0FAA3E0F91217FC80109000414A
:10223A00E0FBA3E0FAA3E0F97D10122133900041FC
:10224A00E0F9A3E0FAA3E0900054C9F0A3EAF0A3EE
:10225A00E9F0A37401F0A3F0FB7A0079151219349E
:10226A00900014E0D394004011E014F07BFF7A212F
:10227A0079FA7F787E0012272C22900027E020E04E
:10228A000E7BFF7A2179FA7FC87E0012272C227BE7
:0C229A00FF7A2179FA7F887E1312272C2E
:0122A6002215
:103339007F007E3C1233A37F807E3C1233A37F0043
:103349007E3D1233A37F807E3D1233A37F007E3EF4
:073359001233A31234FB2222
:0B2BB600900051EBF0A3EAF0A3E9F05F
:102BC100E4A3F0900024E0FF900054E0FEC39F5086
:102BD10046EE75F004A42400FFE5F0343DFE7B01D0
:102BE1007A0079559000607404F0122FE990005139
:102BF100E0FBA3E0FAA3E0F8AC02AD037B017A00AD
:102C010079557E007F04120B87EF70037F012290BC
:092C11000054E004F080AC7F00E7
:012C1A002297
:10323E00900024E0FE740AC39E50037F0122EE75B7
:10324E00F004A42400FFE5F0343DFE900060740409
:10325E00F012305E900024E004F0122EE57F002282
:0B1C6E00900051EBF0A3EAF0A3E9F0B6
:101C7900A3E4F0A37400F0A37437F0900054E0FBE0
:101C8900A3E0FAA3E04A4B7003021D75900054E0EB
:101C9900A3E0A3E0F9900058EBF0A3EAF0A3E9F080
:101CA900900024E025E025E0900060F07F007E3D73
:101CB900122FE9E4900057F0900024E0FF900057BC
:101CC900E0C39F4003021D75900051E0FBA3E0FAB9
:101CD900A3E0F8AC02AD03900058E0FBA3E0FAA33F
:101CE900E0F97E007F04120B87EF706D900057E0DA
:101CF900FDFF900024E0C39FFFE49400FEEF78020B
:101D0900C333CE33CED8F9FFC007ED75F004A4FF75
:101D1900243BF9E4FAFBC00174372FF9E4A801FC6C
:101D2900FDD001D0071207357F007E3D1233A39005
:101D39000024E014F0900054E0FBA3E0FAA3E0F9DA
:101D4900900024E025E025E0900060F07F007E3DD2
:101D590012305E122EE57F0022900059E475F004DE
:0E1D6900120808900057E004F0021CC17F0130
:011D77002249
:0B1A4E00900051EBF0A3EAF0A3E9F0D8
:101A5900A3E4F0A37400F0A37437F0900054E0FB02
:101A6900A3E0FAA3E04A4B7003021B5E900054E026
:101A7900A3E0A3E0F9900058EBF0A3EAF0A3E9F0A2
:101A8900900024E025E025E0900060F07F007E3D95
:101A9900122FE9E4900057F0900024E0FF900057DE
:101AA900E0C39F4003021B36900051E0FBA3E0FA1C
:101AB900A3E0F8AC02AD03900058E0FBA3E0FAA361
:101AC900E0F97E007F03120B87EF704E900057E01C
:101AD900FDFF900024E0C39FFFE49400FEEF78022D
:101AE900C333CE33CED8F9FFC006C007ED75F00475
:101AF900A4243BF9E4FAFBC001900057E075F00318
:101B0900A42437F9E4A801FCFDD001D007D00612BE
:101B19000735900024E014F0800A900059E475F02C
:101B290004120808900057E004F0021AA17F007E11
:101B39003D1233A3900054E0FBA3E0FAA3E0F9902F
:101B49000024E025E025E0900060F07F007E3D1252
:071B5900305E122EE57F0053
:011B60002262
:0B1E8100900051EBF0A3EAF0A3E9F0A1
:101E8C00A3E4F0A37400F0A37437F0900054E0FBCB
:101E9C00A3E0FAA3E04A4B7003021F79900054E0D0
:101EAC00A3E0A3E0F9900058EBF0A3EAF0A3E9F06B
:101EBC00900024E025E025E0900060F07F007E3D5E
:101ECC00122FE9E4900057F0900024E0FF900057A7
:101EDC00E0C39F4003021F6A900051E0FBA3E0FAAD
:101EEC00A3E0F8AC02AD03900058E0FBA3E0FAA32A
:101EFC00E0F97E007F04120B87EF704F900051E0E9
:101F0C00FBA3E0FAA3E0F9900003120774FF900022
:101F1C0058E0FBA3E0FAA3E0F9900003EF1207E608
:101F2C007F007E3D1233A3900054E0FBA3E0FAA3A4
:101F3C00E0F9900024E025E025E0900060F07F00BF
:101F4C007E3D12305E122EE57F0022900059E47522
:101F5C00F004120808900057E004F0021ED4900020
:0F1F6C0051E0FBA3E0FAA3E0F912323E227F011D
:011F7B002243
:10248E00023299E493A3F8E493A34003F68001F299
:10249E0008DFF48029E493A3F85407240CC8C3334F
:1024AE00C4540F4420C8834004F456800146F6DF1E
:1024BE00E4800B010204081020408090352CE47E4D
:1024CE00019360BCA3FF543F30E509541FFEE49313
:1024DE00A360010ECF54C025E060A840B8E493A3DA
:1024EE00FAE493A3F8E493A3C8C582C8CAC583CA05
:1024FE00F0A3C8C582C8CAC583CADFE9DEE780BEBD
:013536000094
:10066500E709F608DFFA8046E709F208DFFA803E77
:1006750088828C83E709F0A3DFFA8032E309F60864
:10068500DFFA8078E309F208DFFA807088828C83CC
:10069500E309F0A3DFFA806489828A83E0A3F60880
:1006A500DFFA805889828A83E0A3F208DFFA804C5A
:1006B50080D280FA80C680D4806980F28033801031
:1006C50080A680EA809A80A880DA80E280CA80339A
:1006D50089828A83ECFAE493A3C8C582C8CCC58312
:1006E500CCF0A3C8C582C8CCC583CCDFE9DEE780E2
:1006F5000D89828A83E493A3F608DFF9ECFAA9F061
:10070500EDFB2289828A83ECFAE0A3C8C582C8CCB6
:10071500C583CCF0A3C8C582C8CCC583CCDFEADECF
:10072500E880DB89828A83E493A3F208DFF980CC31
:1007350088F0EF60010E4E60C388F0ED2402B4042A
:100745000050B9F582EB2402B4040050AF232345D1
:0607550082239006B5733B
:10075B00BB010689828A83E0225002E722BBFE029C
:09076B00E32289828A83E49322CF
:10077400BB010CE58229F582E5833AF583E022503A
:1007840006E92582F8E622BBFE06E92582F8E22284
:0D079400E58229F582E5833AF583E493229E
:1007A100BB010FF8E58229F582E5833AF583E0285C
:1007B100F0225009C58229F8E58226F622BBFE09FE
:1007C100C58229F8E22582F222F8EA2583F583E938
:0307D10093282248
:1007D400BB010689828A83F0225002F722BBFE0104
:0207E400F322FE
:1007E600F8BB010DE58229F582E5833AF583E8F049
:1007F600225006E92582C8F622BBFE05E92582C8F5
:02080600F222DC
:10080800C5F0F8A3E028F0C5F0F8E582158270027B
:060818001583E038F02218
:10081E00A3F8E0C5F025F0F0E5821582700215838D
:06082E00E0C838F0E822EA
:10083400E88FF0A4CC8BF0A42CFCE98EF0A42CFC63
:100844008AF0EDA42CFCEA8EF0A4CDA8F08BF0A4E1
:100854002DCC3825F0FDE98FF0A42CCD35F0FCEB40
:100864008EF0A4FEA9F0EB8FF0A4CFC5F02ECD3905
:0F087400FEE43CFCEAA42DCE35F0FDE43CFC2272
:1008830075F008758200EF2FFFEE33FECD33CDCC2C
:1008930033CCC58233C5829BED9AEC99E5829840AF
:1008A3000CF582EE9BFEED9AFDEC99FC0FD5F0D68C
:1008B300E4CEFBE4CDFAE4CCF9A88222B800C1B9B6
:1008C3000059BA002DEC8BF084CFCECDFCE5F0CBF4
:1008D300F97818EF2FFFEE33FEED33FDEC33FCEB2D
:1008E30033FB10D703994004EB99FB0FD8E5E4F9E8
:1008F300FA227818EF2FFFEE33FEED33FDEC33FCD5
:10090300C933C910D7059BE99A4007EC9BFCE99AC8
:10091300F90FD8E0E4C9FAE4CCFB2275F010EF2F0D
:10092300FFEE33FEED33FDCC33CCC833C810D7070D
:100933009BEC9AE899400AED9BFDEC9AFCE899F848
:0E0943000FD5F0DAE4CDFBE4CCFAE4C8F922DB
:10095100EB9FF5F0EA9E42F0E99D42F0E89C45F0FC
:010961002273
:10096200E8600FECC313FCED13FDEE13FEEF13FF73
:03097200D8F12297
:10097500E8600FEFC333FFEE33FEED33FDEC33FCE0
:03098500D8F12284
:10098800E493F8740193F9740293FA740393FB22C5
:0C099800ECF0A3EDF0A3EEF0A3EFF022D2
:1009A400A8828583F0D083D0821209BB1209BB12BE
:1009B40009BB1209BBE473E493A3C583C5F0C583E3
:1009C400C8C582C8F0A3C583C5F0C583C8C582C89D
:0109D4002200
:1009D500D083D082F8E4937012740193700DA3A3B1
:1009E50093F8740193F5828883E4737402936860C5
:0609F500EFA3A3A380DFC5
:0609FB008A838982E47387
:100A0100E3F5F009E208B5F06BDFF58067E3F5F097
:100A110009E608B5F05EDFF5805A87F009E608B50A
:100A2100F052DFF6804E87F009E208B5F046DFF6B6
:100A3100804288828C8387F009E0A3B5F036DFF627
:100A4100803288828C8387F009E493A3B5F025DF97
:100A5100F5802188828C83E3F5F009E0A3B5F014D9
:100A6100DFF5801088828C83E3F5F009E493A3B568
:100A7100F002DFF4020B30808780E9809080D4801F
:100A81003E8015806E807E809D80B7808D80A380A2
:100A9100518074803C020B3C89828A83ECFAE49396
:100AA100F5F0A3C8C582C8CCC583CCE493A3C8C55F
:100AB10082C8CCC583CCB5F076DFE3DEE1807089F6
:100AC100828A83E493F5F0A3E208B5F062DFF48053
:100AD1005E89828A83E0F5F0A3E608B5F051DFF57F
:100AE100804D89828A83E0F5F0A3E208B5F040DF0A
:100AF100F5803C89828A83E493F5F0A3E608B5F09A
:100B01002EDFF4802A8002805789828A83ECFAE4FE
:100B110093F5F0A3C8C582C8CCC583CCE0A3C8C5F2
:100B210082C8CCC583CCB5F006DFE4DEE280007F6D
:100B3100FFB5F0020F2240027F012289828A83ECF5
:100B4100FAE0F5F0A3C8C582C8CCC583CCE0A3C840
:100B5100C582C8CCC583CCB5F0D5DFE5DEE380CF57
:100B610089828A83ECFAE0F5F0A3C8C582C8CCC5B6
:100B710083CCE493A3C8C582C8CCC583CCB5F0AF00
:100B8100DFE4DEE280A988F0EF60010E4E60ABED9C
:100B91002402B404005098F582EB2402B4040050FE
:0A0BA1008E2323458223900A787307
:100BAB00EF4E6012EF60010EEDBB010B89828A8361
:100BBB00F0A3DFFCDEFA2289F05007F709DFFCA96E
:0C0BCB00F022BBFEFCF309DFFCA9F022C5
:00000001FF
